:020000040800F2
:1000000000000220AD1F00081107000813070008B8
:10001000150700081707000819070008000000006E
:100020000000000000000000000000001B070008A6
:100030001D070008000000001F0700082107000836
:10004000FD1F0008FD1F0008FD1F0008FD1F000820
:10005000FD1F000829070008FD1F0008FD1F0008FC
:10006000FD1F0008FD1F0008FD1F0008FD1F000800
:10007000FD1F0008FD1F0008FD1F0008FD1F0008F0
:10008000FD1F0008FD1F0008FD1F0008FD1F0008E0
:10009000FD1F0008FD1F0008FD1F00087107000874
:1000A000FD1F0008FD1F0008FD1F0008FD1F0008C0
:1000B000FD1F0008FD1F0008FD1F0008FD1F0008B0
:1000C000FD1F0008FD1F0008FD1F0008FD1F0008A0
:1000D000FD1F00082D070008FD1F0008FD1F000878
:1000E0007D070008FD1F0008FD1F0008FD1F000818
:1000F000FD1F0008FD1F0008FD1F0008FD1F000870
:10010000FD1F0008FD1F0008FD1F0008FD1F00085F
:10011000FD1F0008FD1F00083D070008FD1F000827
:10012000FD1F0008FD1F0008FD1F0008FD1F00083F
:10013000FD1F0008FD1F0008FD1F0008FD1F00082F
:10014000FD1F0008FD1F0008FD1F0008FD1F00081F
:10015000FD1F0008FD1F0008FD1F0008FD1F00080F
:10016000FD1F0008FD1F0008FD1F0008FD1F0008FF
:10017000FD1F0008FD1F0008FD1F00080000000013
:08018000FD1F0008FD1F00082F
:1001900001F0FF01102A2BDB10F0070F08D010F838
:1001A000013B013A8B422DD010F0070F42B3F6D13C
:1001B000F0B441EA012141EA014122F007047FF055
:1001C00000070023F0E80256083C85EA010586EAAC
:1001D000010685FA47F5A3FA87F586FA47F6A5FAE8
:1001E00087F68EB9EED1F0BC01F0FF0102F00702F4
:1001F00032B110F8013B013A83EA010313B1F8D19F
:100200000020704701387047002D06BF354603387F
:10021000073815F0010F07D1013015F4807F02BFB8
:10022000013015F4C03F0130F0BC0138704700BF09
:1002300053B94AB9002908BF00281CBF4FF0FF314D
:100240004FF0FF3000F00CB8ADF1080C6DE904CEB2
:1002500002F03AFEDDF804E0DDE9022304B0704765
:10026000704700BF0348044B834202D0034B03B1E5
:100270001847704768000020680000200000000058
:100280000548064B1B1AD90F01EBA301491002D0F8
:10029000034B03B118477047680000206800002036
:1002A0000000000010B5064C237843B9FFF7DAFFD1
:1002B000044B13B10448AFF300800123237010BD39
:1002C00068000020000000008431000808B5054BDC
:1002D0001BB105490548AFF30080BDE80840FFF7B2
:1002E000CFBF00BF000000006C0000208431000878
:1002F00070B58AB000240194334B1A6B42F080022F
:100300001A631A6B02F080020192019A02941A6B2E
:1003100042F001021A631A6B02F001020292029A81
:1003200003941A6B42F020021A631A6B02F0200247
:100330000392039A04941A6B42F004021A631B6B33
:1003400003F004030493049BFF2305930123069306
:10035000079408941D4D05A9284601F0CFFB2246BD
:100360008021284601F0C7FC0723059306940794D3
:10037000A5F5406505A9284601F0C0FB4FF4807340
:1003800005934FF488160696079405A9284601F0B0
:10039000B5FB22460521172001F066FD172001F06C
:1003A00073FD4FF4006305930696079405A928464C
:1003B00001F0A4FB22460421282001F055FD28204D
:1003C00001F062FD0AB070BD003802400014024026
:1003D00010B514464FF0FF3392B2024800F035FEDC
:1003E000204610BDD000002072B6FEE708B50A48CE
:1003F0000A4B03604FF4E133436000238360C36022
:1004000003610C2242618361C36100F0EFFD00B91A
:1004100008BDFFF7E9FF00BFD00000200010014039
:1004200000B583B00023009301930E480E4A02608A
:1004300041F2FF42426083604FF6FF72C260836107
:1004400000F038FC50B90023009301936946054839
:1004500000F05CFC20B903B05DF804FBFFF7C4FFBB
:10046000FFF7C2FF880000200010004000B595B0E3
:100470003022002108A802F02DFB002303930493EF
:100480000593069307930193214A116C41F0805123
:100490001164126C02F080520192019A02931D4B7A
:1004A0001A6842F480421A601B6803F48043029386
:1004B000029B012308934FF48033099302230E9388
:1004C0004FF480020F92192210924FF4A8721192E9
:1004D00012930423139308A800F0EAFF98B90F239E
:1004E000039302230493002305934FF4A053069330
:1004F0004FF480530793052103A801F029FA20B98E
:1005000015B05DF804FBFFF76FFFFFF76DFF00BF4D
:10051000003802400070004010B501F0FDFCFFF70C
:10052000A5FFFFF7E5FEFFF761FFFFF779FF7448CE
:1005300000F056FAB0B1FFF757FF724C012280214C
:10054000204601F0D8FB642001F012FD002280213A
:10055000204601F0D0FB642001F00AFD6A4A1368CE
:10056000013B1360684B1B68002BE6DC01216748E8
:1005700001F0BAFB40B9022100F1804000F50230E1
:1005800001F0B2FB002844D00121604801F0ACFB2F
:1005900040B9022100F1804000F5023001F0A4FBD7
:1005A00001285BD00121594801F09EFB01287AD037
:1005B0000121564801F098FB0128D3D1022153486C
:1005C00001F092FB0128CDD14E4C0122114620466C
:1005D00001F091FB01220221204601F08CFB012257
:1005E0000421204601F087FB01220821204601F06A
:1005F00082FB00221021204601F07DFB00222021F9
:10060000204601F078FB01224021204601F073FBD7
:10061000A8E73C4C01221146204601F06CFB012268
:100620000221204601F067FB01220421204601F04F
:1006300062FB01220821204601F05DFB012210210E
:10064000204601F058FB01222021204601F053FBF7
:1006500000224021204601F04EFB83E7294C002276
:100660000121204601F047FB01220221204601F032
:1006700042FB01220421204601F03DFB002208211B
:10068000204601F038FB00221021204601F033FB08
:1006900000222021204601F02EFB0022402120468E
:1006A00001F029FB5EE70221184801F01DFB00283C
:1006B0007FF47EAF134C01221146204601F01BFB54
:1006C00001220221204601F016FB002204212046CF
:1006D00001F011FB01220821204601F00CFB012250
:1006E0001021204601F007FB00222021204601F0C6
:1006F00002FB01224021204601F0FDFA32E700BF53
:1007000088000020001402408400002000080240FD
:10071000FEE7FEE7FEE7FEE7FEE77047704770473B
:1007200008B501F013FC08BD7047000008B5024889
:1007300000F080FD08BD00BFD000002008B50248D1
:1007400000F096F908BD00BF8800002008B50268D7
:10075000054B9A4200D008BD01F004FC0146034855
:1007600001F072FCF7E700BF001000409C31000868
:1007700008B54FF4807001F0C5FA08BD08B54FF414
:10078000006001F0BFFA08BD10B5B0F5807F31D030
:10079000B0F5006F2DD101F0E5FB01462D4801F0C9
:1007A00053FC2D4C01221146204601F0A4FA0122EF
:1007B0000221204601F09FFA01220421204601F087
:1007C0009AFA00220821204601F095FA0022102111
:1007D000204601F090FA01222021204601F08BFAF8
:1007E00001224021204601F086FA4FF4FA7001F010
:1007F000BFFB10BD01F0B6FB0146184801F024FC18
:10080000154C01221146204601F075FA0122022101
:10081000204601F070FA01220421204601F06BFA13
:1008200001220821204601F066FA0122102120460B
:1008300001F061FA01222021204601F05CFA012238
:100840004021204601F057FA4FF4FA7001F090FB76
:10085000A1E700BFC431000800140240B031000815
:1008600000B583B0002100910E4B5A6C42F48042D7
:100870005A645A6C02F480420092009A01911A6CF8
:1008800042F080521A641B6C03F080530193019B69
:100890000A46052001F0E8FA052001F0F5FA03B058
:1008A0005DF804FB0038024010B588B000230393C4
:1008B0000493059306930793026803F1804303F5BD
:1008C00088339A4201D008B010BD0024019403F58A
:1008D00094335A6C42F010025A645A6C02F01002BF
:1008E0000192019A02941A6B42F001021A631B6B87
:1008F00003F001030293029B4FF4C06303930223AE
:10090000049306930723079303A9064801F0F6F81A
:1009100022460821252001F0A7FA252001F0B4FA8B
:10092000D1E700BF0000024002680E4B9A4200D09F
:10093000704700B583B00022019203F50A33196CA9
:1009400041F0100119641B6C03F010030193019B2B
:100950000621362001F088FA362001F095FA03B01E
:100960005DF804FB001000400268194B9A4200D069
:100970007047184A1388B2F90020002AF8DB13F4F4
:10098000804F0ED0144A12780A2A03D0114B00224D
:100990001A8070476FEA43436FEA53430D4A13804E
:1009A00070470D4A12780D2A0DD0C3F30D010B4884
:1009B000425401339BB2074A1380C72BD8D9134640
:1009C00000221A80D4E743F48043024A1380704720
:1009D0000010014016010020140100201801002021
:1009E00090F83D30DBB2012B37D1022380F83D3047
:1009F0000268D36843F00103D3600368194A934245
:100A000020D0B3F1804F1DD0A2F57C42934219D083
:100A100002F58062934215D002F58062934211D0B4
:100A200002F5784293420DD002F57052934209D0FC
:100A3000A2F59432934205D01A6842F001021A607E
:100A4000002070479A6802F00702062A07D01A6849
:100A500042F001021A600020704701207047002018
:100A6000704700BF000001407047704770477047F3
:100A700010B5044603681A6912F0020F11D0DA6843
:100A800012F0020F0DD06FF002021A6101230377FA
:100A900003689B6913F0030F70D0FFF7E6FF002394
:100AA000237723681A6912F0040F12D0DA6812F063
:100AB000040F0ED06FF004021A610223237723681B
:100AC0009B6913F4407F5FD02046FFF7CEFF0023E1
:100AD000237723681A6912F0080F12D0DA6812F02F
:100AE000080F0ED06FF008021A61042323772368E1
:100AF000DB6913F0030F4ED02046FFF7B6FF00234B
:100B0000237723681A6912F0100F12D0DA6812F0F6
:100B1000100F0ED06FF010021A610823237723689C
:100B2000DB6913F4407F3DD02046FFF79EFF002392
:100B3000237723681A6912F0010F03D0DA6812F0E4
:100B4000010F36D123681A6912F0800F03D0DA68DA
:100B500012F0800F34D123681A6912F0400F03D0CD
:100B6000DA6812F0400F32D123681A6912F0200FB0
:100B700003D0DA6812F0200F30D110BDFFF774FFF8
:100B80002046FFF773FF8AE72046FFF76DFF2046F8
:100B9000FFF76CFF9BE72046FFF766FF2046FFF755
:100BA00065FFACE72046FFF75FFF2046FFF75EFFDB
:100BB000BDE76FF001021A612046FFF7C7FDC1E7EC
:100BC0006FF080021A61204600F0E7F8C3E76FF08B
:100BD00040021A612046FFF74AFFC5E76FF0200286
:100BE0001A61204600F0D8F8C7E700000368304AD1
:100BF000904212D0B0F1804F0FD0A2F57C429042CB
:100C00000BD002F58062904207D002F580629042DC
:100C100003D002F57842904203D123F070034A6872
:100C20001343234A90422AD0B0F1804F27D0A2F537
:100C30007C42904223D002F5806290421FD002F5A0
:100C4000806290421BD002F57842904217D002F5A4
:100C50007052904213D002F5806290420FD002F59C
:100C6000806290420BD0A2F59832904207D002F5F4
:100C70008062904203D002F58062904203D123F457
:100C80004073CA68134323F080034A691343036027
:100C90008B68C3620B688362054B984203D003F5EF
:100CA0008063984201D10B6903630123436170475C
:100CB0000000014040B310B5044690F83D30F3B158
:100CC000022384F83D30214651F8040BFFF78EFFD4
:100CD000012384F8463084F83E3084F83F3084F8AD
:100CE000403084F8413084F8423084F8433084F84E
:100CF000443084F8453084F83D30002010BD80F841
:100D00003C30FFF711FEDBE70120704790F83C20F4
:100D1000012A3DD010B40346012280F83C20022273
:100D200080F83D2002685068946820F0700C0868D4
:100D300040EA0C0050601A68164882421AD0B2F19C
:100D4000804F17D0A0F57C40824213D000F5806020
:100D500082420FD000F5806082420BD000F57840CF
:100D6000824207D000F57050824203D0A0F5943043
:100D7000824204D124F08004496821439160012219
:100D800083F83D20002083F83C005DF8044B704759
:100D9000022070470000014070477047026802F16E
:100DA0000C0353E8003F23F490730C3242E8003107
:100DB0000029F3D1026802F1140353E8003F23F045
:100DC0000103143242E800310029F3D1036B012BF7
:100DD00005D0202380F83E3000230363704702686B
:100DE00002F10C0353E8003F23F010030C3242E8F9
:100DF00000310029F3D1ECE790F83D30DBB2212B34
:100E000001D0022070478368B3F5805F17D0036A72
:100E10005A1C02621A7803685A60C38C9BB2013B69
:100E20009BB2C3844BB90268D36823F08003D360BC
:100E30000268D36843F04003D36000207047036921
:100E4000002BE4D1036A1B880268C3F308035360D4
:100E5000036A02330362E0E710B5044602681369CF
:100E600023F44053C1680B431361836802691A433A
:100E700043691A43C3691A430168CB6823F41643D4
:100E800023F00C031343CB600268536923F44073CF
:100E900081690B4353610368314A934206D002F5DE
:100EA0008062934202D000F009FE01E000F016FEDD
:100EB000E369B3F5004F29D00021031849411B18FD
:100EC00041F10001C90041EA5371DB001818636861
:100ED0004FEA83024FEA937341F10001FFF7A8F94B
:100EE000204AA2FB00314909642303FB11031B01C3
:100EF0003233A2FB03235B0903F0F00202EB011281
:100F000003F00F03216813448B6010BD0023021807
:100F100043EB0301121841F10001C90041EA52718B
:100F2000D200101841F10001626892185B41FFF78E
:100F30007FF90C4AA2FB00314909642303FB11032A
:100F4000DB003233A2FB03235B095A0002F4F87280
:100F500002EB011203F00703216813448B60D4E70E
:100F6000001001401F85EB512DE9F84305460F465F
:100F700016469946DDF820802B681C6837EA040481
:100F80000CBF01240024B4422DD1B8F1FF3FF3D0AF
:100F9000B8F1000F05D000F0E5FFA0EB09004045D7
:100FA000EAD92A6802F10C0353E8003F23F4D07316
:100FB0000C3242E800310029F3D12A6802F114030F
:100FC00053E8003F23F00103143242E800310029C6
:100FD000F3D1202385F83D3085F83E30002385F895
:100FE0003C30032000E00020BDE8F88358B310B582
:100FF000044690F83D300BB3242384F83D3022683A
:10100000D36823F40053D3602046FFF725FF2268FE
:10101000136923F4904313612268536923F02A0370
:1010200053612268D36843F40053D36000202064E6
:10103000202384F83D3084F83E3010BD80F83C30E9
:10104000FFF732FCD8E7012070472DE9F04182B06C
:101050001E4690F83D30DBB2202B54D104460D469D
:101060009046002953D0002A53D090F83C30012BF1
:1010700051D0012380F83C3000230364212380F801
:101080003D3000F06FFF0746A4F82480A4F82680C6
:10109000A368B3F5805F05D04FF00008002384F803
:1010A0003C3012E0236913B14FF00008F6E7A84680
:1010B0000025F3E738F8023B2268C3F308035360C6
:1010C000E28C92B2013A92B2E284E38C9BB273B1A9
:1010D00000963B46002280212046FFF745FFE0B9FD
:1010E000002DE7D015F8012B23685A60E8E7009639
:1010F0003B46002240212046FFF736FF78B92023E7
:1011000084F83D3000E0022002B0BDE8F08101200B
:10111000FAE70120F8E70220F6E70320F4E70320CE
:10112000F2E7704708B50168CA6822F04002CA6059
:10113000202280F83D20FFF7F4FF002008BD704713
:1011400008B5806B0023C385C384FFF7F8FF08BD93
:10115000704790F83E30DBB2222B67D18368B3F53D
:10116000805F4DD0826AB3F5805F04D0002B54D1EC
:101170000369002B51D103685B681370836A0133E4
:101180008362C38D9BB2013B9BB2C385002B4FD1C1
:1011900000B583B00268D36823F02003D3600268EF
:1011A000D36823F48073D3600268536923F001038A
:1011B0005361202380F83E30036B012B33D1002391
:1011C0000363026802F10C0353E8003F23F01003AD
:1011D0000C3242E800310029F3D103681A6812F09A
:1011E000100F06D0002201921A6801925B680193E9
:1011F000019B818DFFF7ACFF002003B05DF804FB7D
:101200000269002AAED1826A03685B68C3F30803EF
:101210001380836A02338362B3E703685B6803F079
:101220007F031370AAE7FFF79FFBE5E702207047F3
:101230000020704710B582B0044602681368D06879
:10124000516913F00F0F09D113F0200F0CD010F0DB
:10125000200F09D02046FFF77CFF16E011F00101B6
:1012600015D110F4907F12D1216B012979D013F0A0
:10127000800F03D010F0800F40F0108113F0400F6A
:1012800003D010F0400F40F00D8102B010BD13F0FC
:10129000010F06D010F4807F03D0226C42F00102CF
:1012A000226413F0040F04D019B1226C42F0020240
:1012B000226413F0020F04D019B1226C42F0040230
:1012C000226413F0080F07D010F0200F00D119B1DD
:1012D000226C42F008022264226C002AD5D013F05E
:1012E000200F02D010F0200F29D123685B6903F092
:1012F0004003226C12F0080F00D163B32046FFF7C1
:101300004DFD23685B6913F0400F20D0226802F185
:10131000140353E8003F23F04003143242E8003145
:101320000029F3D1A36B73B1604A1A65A06B00F07A
:1013300041FD0028A9D0A06B036D9847A5E7204682
:10134000FFF707FFD1E72046FFF7F9FE9DE72046AC
:10135000FFF7F5FE99E72046FFF7F1FE002323642F
:1013600093E713F0100F82D010F0100F3FF47FAF0F
:10137000002301931368019353680193019B536900
:1013800013F0400F50D0A26B13685B689BB2002B28
:101390003FF47BAFA18D99427FF677AFE385D369A8
:1013A000B3F5807F37D0226802F10C0353E8003F89
:1013B00023F480730C3242E800310029F3D1226813
:1013C00002F1140353E8003F23F00103143242E812
:1013D00000310029F3D1226802F1140353E8003FE1
:1013E00023F04003143242E800310029F3D12023D6
:1013F00084F83E3000232363226802F10C0353E893
:10140000003F23F010030C3242E800310029F3D1F1
:10141000A06B00F085FCA18DE38D9BB2C91A89B247
:101420002046FFF795FE30E7A18DE38D9BB2C91AE8
:1014300089B2E38D9BB2002B3FF427AF00293FF424
:1014400024AF226802F10C0353E8003F23F49073A9
:101450000C3242E800300028F3D1226802F1140374
:1014600053E8003F23F00103143242E80030002823
:10147000F3D1202384F83E3000232363226802F155
:101480000C0353E8003F23F010030C3242E8003015
:101490000028F3D12046FFF75BFEF6E62046FFF773
:1014A000ABFCF2E62046FFF73DFEEEE641110008F8
:1014B000002800F0E08170B582B00446036813F0A4
:1014C000010F3BD09F4B9B6803F00C03042B2CD0E7
:1014D0009C4B9B6803F00C03082B21D06368B3F589
:1014E000803F4FD0B3F5A02F52D0964B1A6822F40C
:1014F00080321A601A6822F480221A606368002B16
:1015000050D000F02FFD05468E4B1B6813F4003FB2
:1015100014D100F027FD401B6428F5D90320B1E168
:10152000884B5B6813F4800FD8D0864B1B6813F48C
:10153000003F03D06368002B00F09F81236813F005
:10154000020F54D07F4B9B6813F00C0F3ED07D4BA5
:101550009B6803F00C03082B33D0E368002B68D0A2
:10156000794B01221A6000F0FDFC0546754B1B68A3
:1015700013F0020F54D100F0F5FC401B0228F5D9FE
:1015800003207FE16F4A136843F480331360B5E7AB
:101590006C4B1A6842F480221A601A6842F4803256
:1015A0001A60ABE700F0DEFC0546664B1B6813F4DF
:1015B000003FC3D000F0D6FC401B6428F5D90320BF
:1015C00060E1604B5B6813F4800FC6D15D4B1B6814
:1015D00013F0020F03D0E368012B40F05081594A09
:1015E000136823F0F803216943EAC10313602368F9
:1015F00013F0080F42D063696BB3534B0122C3F859
:10160000802E00F0AFFC05464E4B5B6F13F0020FCF
:1016100034D100F0A7FC401B0228F5D9032031E1AA
:10162000484A136823F0F803216943EAC1031360B1
:10163000DDE7454B00221A6000F094FC0546414B63
:101640001B6813F0020FD2D000F08CFC401B022864
:10165000F5D9032016E13C4B0022C3F8802E00F0A0
:1016600081FC0546374B5B6F13F0020F06D000F08C
:1016700079FC401B0228F5D9032003E1236813F00D
:10168000040F77D02F4B1B6C13F0805F33D10023F6
:1016900001932C4B1A6C42F080521A641B6C03F0BD
:1016A00080530193019B0125284B1B6813F4807F15
:1016B00023D0A368012B34D0052B38D0214B1A6FCF
:1016C00022F001021A671A6F22F004021A67A36857
:1016D000002B3DD000F046FC06461A4B1B6F13F062
:1016E000020F46D100F03EFC801B41F28833984245
:1016F000F3D90320C6E00025D6E7144A136843F463
:101700008073136000F02EFC0646104B1B6813F428
:10171000807FCED100F026FC801B0228F5D9032063
:10172000B0E0084A136F43F001031367CFE7054B9E
:101730001A6F42F004021A671A6F42F001021A6728
:10174000C5E700BF0038024000004742007000407B
:1017500000F008FC0646524B1B6F13F0020F08D036
:1017600000F000FC801B41F288339842F3D903203B
:1017700088E0EDB9A369002B00F08380484A9268A5
:1017800002F00C02082A51D0022B17D0454B002240
:101790001A6600F0E7FB0446414B1B6813F0007F1C
:1017A00042D000F0DFFB001B0228F5D9032069E0DE
:1017B0003B4A136C23F080531364DBE7394B002260
:1017C0001A6600F0CFFB0546354B1B6813F0007F0F
:1017D00006D000F0C7FB401B0228F5D9032051E0DA
:1017E000E369226A1343626A43EA8213A26A5208D7
:1017F000013A43EA0243E26A43EA0263284A536039
:10180000284B01221A6600F0ADFB0446244B1B68EE
:1018100013F0007F06D100F0A5FB001B0228F5D9CC
:1018200003202FE000202DE000202BE0012B2BD007
:101830001B4B5B6803F48001E269914226D103F0FF
:101840003F02216A8A4223D1616A47F6C0721A4078
:10185000B2EB811F1ED103F44031A26A5208013A53
:10186000B1EB024F18D103F07063E26AB3EB026F81
:1018700014D1002006E001207047012002E0012081
:1018800000E0002002B070BD0120FBE70120F9E775
:101890000120F7E70120F5E70120F3E70120F1E758
:1018A000003802400000474208B5264B9B6803F011
:1018B0000C03042B41D0082B41D1224B5A6802F073
:1018C0003F025B6813F4800F12D01E4B5968C1F3BE
:1018D00088111D480023A1FB0001FEF7A9FC194B4C
:1018E0005B68C3F3014301335B00B0FBF3F027E017
:1018F000144B5868C0F388104FEA401CBCEB000C36
:101900006EEB0E0E4FEA8E1343EA9C634FEA8C1186
:10191000B1EB0C0163EB0E03DB0043EA5173C9002A
:1019200011EB000C43F10003990200234FEA8C20D5
:1019300041EA9C51FEF77CFCD1E7034800E00348F4
:1019400008BD00BF0038024040787D010024F4004B
:10195000002800F09B8070B50D4604464F4B1B6875
:1019600003F007038B4208D2CBB24C4A13701368C2
:1019700003F007038B4240F08B80236813F0020FC3
:1019800017D013F0040F04D0454A936843F4E05392
:101990009360236813F0080F04D0414A936843F41E
:1019A000604393603E4A936823F0F003A1680B43C1
:1019B0009360236813F0010F32D06368012B21D0AC
:1019C0009A1E012A25D9364A126812F0020F61D0F8
:1019D00033498A6822F0030213438B6000F0C2FA95
:1019E00006462F4B9B6803F00C036268B3EB820F33
:1019F00016D000F0B7FA801B41F288339842F0D934
:101A0000032042E0264A126812F4003FE0D1012090
:101A10003BE0234A126812F0007FD9D1012034E064
:101A20001E4B1B6803F00703AB4207D9EAB21B4BFE
:101A30001A701B6803F00703AB422DD1236813F023
:101A4000040F06D0164A936823F4E053E1680B4371
:101A50009360236813F0080F07D0114A936823F4AA
:101A60006043216943EAC1039360FFF71DFF0C4BFC
:101A70009B68C3F303130B4AD35CD8400A4B18602E
:101A80000A4B186800F022FA002070BD0120704750
:101A90000120FAE70120F8E70120F6E7003C0240C8
:101AA00000380240E0310008080000200400002057
:101AB000014B1868704700BF0800002008B5FFF709
:101AC000F7FF044B9B68C3F38223034AD35CD840DF
:101AD00008BD00BF00380240D831000808B5FFF744
:101AE000E7FF044B9B68C3F34233034AD35CD840FF
:101AF00008BD00BF00380240D831000800230F2B7A
:101B000000F2E98070B582B065E085684FEA430E67
:101B1000032404FA0EF425EA0405CC6804FA0EF452
:101B20002C438460446824EA02044A68C2F3001229
:101B30009A40224342605CE0DC08083450F82420DC
:101B400003F00705AD004FF00F0E0EFA05FE22EA76
:101B50000E0E0A69AA4042EA0E0240F824205CE018
:101B6000072200E0002202FA0EF22A4302345A4D04
:101B700045F82420594A94686FEA0C0224EA0C05BF
:101B80004E6816F4801F01D04CEA0405534CA56042
:101B9000E46802EA04054E6816F4001F01D04CEA1E
:101BA00004054E4CE560646802EA04054E6816F4CC
:101BB000003F01D04CEA0405484C6560246822408F
:101BC0004D6815F4803F01D04CEA0402434C22607A
:101BD00001330F2B7DD801229A400C6804EA020CD5
:101BE00032EA0404F4D14C6804F00304013C012CF3
:101BF0008BD94A6802F00302032A09D0C4685D0049
:101C00000322AA4024EA02048A68AA402243C2604E
:101C10004A6802F00302022A8ED004684FEA430E9B
:101C2000032202FA0EF224EA02044A6802F00302D6
:101C300002FA0EF2224302604A6812F4403FC7D013
:101C400000220192264A546C44F480445464526C3D
:101C500002F480420192019A9C08A51C1E4A52F887
:101C6000255003F0030E4FEA8E0E0F2202FA0EF2F9
:101C700025EA02051B4A90423FF474AF02F58062E8
:101C800090421AD002F58062904218D002F580622C
:101C9000904216D002F58062904214D002F5806224
:101CA000904212D002F58062904210D002F580621C
:101CB00090423FF455AF082255E7012253E7022234
:101CC00051E703224FE704224DE705224BE70622A6
:101CD00049E702B070BD704700380140003C014048
:101CE00000380240000002400369194201D001207F
:101CF0007047002070470AB1816170470904816113
:101D00007047000008B5054B5B69034200D108BD70
:101D1000024B5861FEF738FDF9E700BF003C014077
:101D200070B50446866D00F01DF994F83530DBB2CD
:101D3000022B06D080236365002384F83430012011
:101D400070BD05462268136823F0160313602268ED
:101D5000536923F080035361236CE3B12268136855
:101D600023F0080313602268136823F00103136053
:101D700023681B6813F0010F11D000F0F3F8431B28
:101D8000052BF5D920236365032084F83500002353
:101D900084F83430D4E7A36C002BDFD1E3E7E26DA5
:101DA0003F239340B360012384F83530002084F84A
:101DB0003400C5E790F83530DBB2022B03D0802326
:101DC000436501207047052380F8353002681368A9
:101DD00023F001031360002070470000002808DB97
:101DE0000901C9B200F1604000F5614080F80013BC
:101DF000704700F00F000901C9B2014B1954704738
:101E000014ED00E000B500F00700C0F1070CBCF1D4
:101E1000040F28BF4FF0040C031D062B0FD9C31E5F
:101E20004FF0FF3E0EFA0CF021EA000199400EFA45
:101E300003FE22EA0E0241EA02005DF804FB0023E1
:101E4000EEE70000074AD36823F4E0631B041B0C91
:101E5000000200F4E060034343F0BF6343F4003347
:101E6000D360704700ED00E010B50446054BD8681C
:101E7000C0F30220FFF7C6FF01462046FFF7AEFF82
:101E800010BD00BF00ED00E0002807DB00F01F02DE
:101E9000400901239340024A42F82030704700BFB6
:101EA00000E100E00138B0F1807F0BD24FF0E02379
:101EB0005861054AF02182F823100020986107221A
:101EC0001A6170470120704700ED00E010B504462C
:101ED0000E4B1A784FF47A73B3FBF2F30C4A106886
:101EE000B0FBF3F0FFF7DEFF68B90F2C01D901203A
:101EF0000AE0002221464FF0FF30FFF7B5FF054B07
:101F00001C60002000E0012010BD00BF0000002088
:101F1000080000200400002008B50B4B1A6842F4AA
:101F200000721A601A6842F480621A601A6842F4F9
:101F300080721A600320FFF785FF0120FFF7C6FFBC
:101F4000FEF78EFC002008BD003C0240034A1168E9
:101F5000034B1B780B441360704700BFE001002067
:101F600000000020014B1868704700BFE00100200E
:101F700038B50446FFF7F6FF0546B4F1FF3F02D03F
:101F8000044B1B781C44FFF7EDFF401BA042FAD323
:101F900038BD00BF00000020034AD2F8883043F467
:101FA0007003C2F88830704700ED00E0DFF834D0ED
:101FB0000D480E490E4A002302E0D458C4500433A1
:101FC000C4188C42F9D30B4A0B4C002301E0136078
:101FD0000432A242FBD3FFF7DFFF00F011F8FEF757
:101FE0009BFA7047000002200000002068000020DB
:101FF000343200086800002034030020FEE70000AF
:1020000070B50D4D0D4C641BA4100026A64209D1DD
:102010000B4D0C4C01F0B6F8641BA4100026A64230
:1020200005D170BD55F8043B98470136EEE755F8E9
:10203000043B98470136F2E72C3200082C320008A6
:102040002C320008303200080FB407B5064904AB43
:10205000086853F8042B8168019300F031F803B04D
:102060005DF804EB04B070470C0000209368013B5E
:10207000002B10B4936008DA9469A34201DB0A29AB
:1020800003D15DF8044B00F033B91368581C10609D
:10209000197008465DF8044B7047F8B506460F46C0
:1020A0001446D518AC4201D1002007E014F8011BFA
:1020B0003A463046FFF7DAFF431CF3D1F8BD000083
:1020C0002DE9F04F0D469DB014469846064618B1CE
:1020D000036A0BB900F072FC6B6ED90705D4AB89AB
:1020E0009A0502D4A86D00F048FDAB891B0701D505
:1020F0002B699BB92946304600F038F970B16B6EF8
:10210000DC0704D54FF0FF301DB0BDE8F08FAB8980
:102110009805F7D4A86D00F031FDF3E7002309938B
:1021200020238DF82930CDF80C803023DFF8AC81E6
:102130008DF82A304FF0010923469A4613F8012BF7
:102140000AB1252AF9D1BAEB040B0BD05B46224623
:1021500029463046FFF7A1FF013000F0A780099A19
:102160005A4409929AF80030002B00F09F80002317
:102170004FF0FF32CDE905230AF1010A04930793DA
:102180008DF853301A935446052214F8011B534816
:10219000FDF7FEFF049AD8B9D10644BF20238DF87D
:1021A0005330130744BF2B238DF853309AF8003077
:1021B0002A2B15D0079A544600204FF00A0C2146CE
:1021C00011F8013B303B092B4BD9B0B1079214E019
:1021D000A0EB080309FA03F313430493A246D2E7E2
:1021E000039B191D1B680391002BBBBF5B4242F090
:1021F000020207930793B8BF049223782E2B0AD1CB
:1022000063782A2B32D1039B1A1D1B68039243EA81
:10221000E37302340593DFF8D4A0217803225046FB
:10222000FDF7B6FF38B1049BA0EB0A0040228240C4
:1022300013430134049314F8011B29488DF8281026
:102240000622FDF7A5FF00283FD0264B1BBB039BB2
:10225000073323F0070308330393099B3B44099397
:102260006AE70CFB02320C460120A8E70023013488
:10227000059319464FF00A0C204610F8012B303A0E
:10228000092A03D9002BC6D00591C4E70CFB012114
:1022900004460123F0E703AB00932A46124B04A93E
:1022A0003046AFF300800746781CD6D16B6ED90755
:1022B00005D4AB899A0502D4A86D00F05FFCAB8908
:1022C0005B063FF51FAF09981EE703AB00932A4654
:1022D000054B04A9304600F00DF9E4E7F0310008A1
:1022E000FA310008000000009B200008F6310008C9
:1022F000F8B50E461446054618B1036A0BB900F04E
:102300005DFBA369A360A3891A0701D5236943B9BB
:102310002146284600F02AF818B14FF0FF3738461A
:10232000F8BD23682269981A6369F6B2834237467A
:1023300005DC2146284600F08DFA0028EDD1A3687F
:10234000013BA36023685A1C22601E706269431C13
:102350009A4204D0A389DB07E1D50A2EDFD12146BA
:10236000284600F077FA0028D9D0D6E738B5294BAF
:10237000054618680C4618B1036A0BB900F01EFB3D
:10238000B4F90C30190722D4DA0607D409222A60DE
:1023900043F04003A3814FF0FF3033E0580712D5DC
:1023A000616B41B104F14403994202D0284600F028
:1023B00099FB00236363A38923F02403A3810023F3
:1023C000636023692360A38943F00803A381236921
:1023D0004BB9A38903F42073B3F5007F03D02146E2
:1023E000284600F0F2FBB4F90C3013F001020AD0D9
:1023F0000022A26062695242A261226942B913F0CE
:102400008000C5D138BD990758BF6269A260F4E762
:102410000020F7E70C0000202DE9F047164698460B
:102420008A680B69DDF820909342B8BF1346336089
:1024300091F8432007460C460AB101333360236804
:10244000990642BF336802333360256815F00605EC
:1024500006D104F1190AE36832689B1AAB4226DC04
:1024600094F843302268003B18BF012392062BD416
:1024700004F1430241463846C84701301ED0236864
:10248000226903F00603042B02BFE5683368ED1AE6
:10249000A3680CBF25EAE57500259342C4BF9B1ACB
:1024A000ED1800261A34B5421AD1002008E00123A5
:1024B000524641463846C847013003D14FF0FF30FD
:1024C000BDE8F0870135C6E7E1185A1C302081F8D5
:1024D0004300224494F8451082F843100233C7E7C2
:1024E0000123224641463846C8470130E6D001362E
:1024F000D9E700002DE9FF470F7E0C9E782F91460B
:1025000080460C469A4601F1430207D8622F0AD84A
:10251000002F00F0DD80582F00F0C38004F1420648
:1025200084F842703AE0A7F16303152BF6D801A1B5
:1025300051F823F08D250008A12500081D2500086D
:102540001D2500081D2500081D250008A1250008DF
:102550001D2500081D2500081D2500081D25000853
:10256000B72600082F2600086F2600081D25000842
:102570001D250008D92600081D2500082F26000863
:102580001D2500081D2500087726000833681A1D40
:102590001B68326004F1420684F842300123A8E04F
:1025A00031682368081D30601E0601D50D6803E000
:1025B0005D06FBD5B1F900506168002D78DA2D2059
:1025C000002984F84300A1602DDA5E486D420A2399
:1025D0001646B5FBF3F103FB1157C75D06F8017D05
:1025E0002F46BB420D46F4D9082B0BD12368DF07D9
:1025F00008D5236961689942DEBF302306F8013CA3
:1026000006F1FF36921B2261CDF800A04B4603AACB
:1026100021464046FFF700FF01306FD14FF0FF30F9
:1026200004B0BDE8F08723F004032360CDE7216800
:102630003368080653F8045B02D4490648BFADB2BC
:102640006F2F4048336014BF0A230823002184F809
:1026500043106668A660002EBADB216821F00401F1
:102660002160002DB4D1002EB2D11646BCE72368FC
:1026700043F0200323603448782784F845702368AA
:1026800031681F0651F8045B02D45F0648BFADB243
:102690003160D90744BF43F0200323601DB11023EC
:1026A000D4E72848E9E7236823F020032360F6E70E
:1026B00024480A23CDE7336825686169181D306016
:1026C0002E061B6801D5196002E06806FBD519804B
:1026D00000232361164697E733681A1D32601E688F
:1026E000626800213046FDF753FD08B1801B606031
:1026F00063682361002384F8433085E72369324609
:1027000049464046D047013088D023689B0714D4FF
:10271000E068039B9842B8BF184681E70123324620
:1027200049464046D04701303FF478AF0135E36871
:1027300003995B1AAB42F1DCEAE7002504F11906C4
:10274000F5E700BF0132000812320008B1F90C2091
:102750002DE9F041170705460C4656D44B68002B6F
:1027600002DC0B6C002B3DDDE66A002E3AD0002324
:1027700012F480522F68216A2B6025D0626DA389E4
:10278000580705D56368D21A636B0BB1236CD21A54
:10279000216AE66A00232846B047411C24D0002362
:1027A000636023692360A389DA0400D56065616BE7
:1027B0002F60B9B104F14403994202D0284600F0D9
:1027C00091F9002363630DE001232846B047461CBE
:1027D0000246D4D12B68002BD1D01D2B01D0162B53
:1027E0002BD12F6000202FE02A68B4F90C3042B1C1
:1027F0001D2A01D0162A22D1002363602369236099
:10280000D5E7626022692260CEE70F69002FE9D028
:1028100093070E6808BF4B690F6018BF0023A6EB33
:1028200007088B60B8F1000FDCDD216AA66A434619
:102830003A462846B047002808DCB4F90C3043F08B
:102840004003A3814FF0FF30BDE8F0810744A8EBBF
:102850000008E7E738B50B6905460C4613B90025B3
:10286000284638BD18B1036A0BB900F0A7F8B4F9CF
:102870000C30002BF3D0626ED00704D4990502D43B
:10288000A06D00F07AF928462146FFF75FFF636EDE
:10289000DA070546E4D4A3899B05E1D4A06D00F0D6
:1028A0006DF9DDE7002310B50446C0E90033C0E947
:1028B0000433836081814366C281836119460822A3
:1028C0005C3000F007F90D4B63620D4BA3620D4BBA
:1028D000E3620D4B23630D4B24629C4206D003F14F
:1028E0006802944202D0D0339C4205D104F15800D2
:1028F000BDE8104000F040B910BD00BFED29000850
:102900000F2A0008472A00086B2A0008E40100206B
:10291000024A0349034800F0BFB800BF5C00002032
:10292000552800081000002041680C4B994210B552
:10293000044601D0FFF78EFFA168094B994202D0EF
:102940002046FFF787FFE168064B994204D02046F6
:10295000BDE81040FFF77EBF10BD00BFE4010020BE
:102960004C020020B402002010B50B4B0B4C0C4A5B
:102970001A60204600220421FFF794FF04F168004A
:1029800001220921FFF78EFF04F1D0000222BDE8E9
:1029900010401221FFF786BF1C030020E401002035
:1029A00011290008014800F0E8B800BF2103002009
:1029B000014800F0E3B800BF2103002010B5044631
:1029C000FFF7F0FF236A1BB1BDE81040FFF7F0BF2F
:1029D000044B2362044B1B68002BF5D1FFF7C4FFA7
:1029E000F2E700BF292900081C03002010B50C469F
:1029F000B1F90E1000F004FA0028ABBF636DA38993
:102A00001B1823F48053ACBF6365A38110BD2DE96F
:102A1000F0411F468B89DB0505460C46164605D559
:102A2000B1F90E100223002200F0D8F9A389B4F9FD
:102A30000E1023F48053A38132463B462846BDE85E
:102A4000F04100F017B810B50C46B1F90E1000F0C7
:102A5000C5F9431CA38915BF606523F4805343F473
:102A60008053A38118BFA38110BDB1F90E1000F0EF
:102A7000E9B8000038B5074D044608461146002263
:102A80002A601A46FDF7A4FC431C02D12B6803B14F
:102A9000236038BD240300202DE9F843074688460B
:102AA00014460026D4E90195B9F1010905D5246839
:102AB000002CF7D13046BDE8F883AB89012B07D94C
:102AC000B5F90E30013303D029463846C0470643D6
:102AD0006835E9E702440346934200D1704703F8A2
:102AE000011BF9E738B50546002941D051F8043CEF
:102AF0000C1F002BB8BFE41800F094F91D4A1368AE
:102B000033B9636014602846BDE8384000F090B9DE
:102B1000A34208D9206821188B4201BF19685B685D
:102B200009182160EDE71A465B680BB1A342FAD998
:102B300011685018A0420BD12068014450188342FC
:102B40001160E0D118685B68536008441060DAE7F0
:102B500002D90C232B60D6E7206821188B4204BFD2
:102B600019685B68636004BF091821605460CAE794
:102B700038BD00BF2C03002070477047704770B508
:102B80000C46B1F90E10002996B015461E460DDA16
:102B9000A38913F0800F4FF0000114BF40234FF4BE
:102BA0008063002031602B6016B070BD6A4600F073
:102BB000F3F80028ECDB019901F47041A1F5005312
:102BC000594259414FF48063EBE78B89F7B59D0774
:102BD00006460C4607D504F1470323602361012311
:102BE000636103B0F0BD01AB6A46FFF7C8FF009F09
:102BF00005463946304600F057F848B9B4F90C306C
:102C00009A05EED423F0030343F00203A381E2E725
:102C1000A389206043F08003A381019BC4E90407DA
:102C20005BB1B4F90E10304600F0C8F828B1A389A2
:102C300023F0030343F00103A381A3891D43A5816E
:102C4000CFE7000038B5064D0023044608462B6048
:102C500000F004F9431C02D12B6803B1236038BD96
:102C60002403002070B50F4E0C463168054611B99B
:102C700000F0E4F830602146284600F0DFF8431CFD
:102C800003D14FF0FF34204670BDC41C24F0030470
:102C9000A042F8D0211A284600F0D0F80130F2D135
:102CA000EFE700BF280300202DE9F041CD1C25F0FF
:102CB000030508350C2D38BF0C25002D064601DB19
:102CC000A94204D90C2333600020BDE8F081314FC4
:102CD00000F0A8F83B681C4644BB29463046FFF785
:102CE000C1FF431C044650D13C682146002941D114
:102CF000002C44D02368304604EB030800F09EF813
:102D000080453CD121686D1A29463046FFF7AAFF5D
:102D1000013034D023682B4423603B68002B36D02D
:102D20005A68A24229D100225A600EE02268521B42
:102D30001DD40B2A16D96119A342256018BF59600A
:102D4000636808BF396062514B60304600F070F82C
:102D500004F10B00231D20F00700C21AB5D01B1A86
:102D6000A350B2E7A3426268DED13A60EDE72346A2
:102D70006468B1E70C464968B8E71346CEE70C2310
:102D80003360304600F054F89EE70560DDE75B6095
:102D9000FFDE00BF2C03002038B5074D002304469A
:102DA000084611462B6000F061F8431C02D12B68E5
:102DB00003B1236038BD00BF2403002038B5064DA1
:102DC0000023044608462B6000F058F8431C02D14B
:102DD0002B6803B1236038BD2403002038B5074DAC
:102DE00004460846114600222A601A4600F04EF8B2
:102DF000431C02D12B6803B1236038BD240300209B
:102E000038B5074D04460846114600222A601A4686
:102E100000F044F8431C02D12B6803B1236038BD95
:102E2000240300200148FFF7A8BE00BF20030020B4
:102E30000148FFF7A3BE00BF2003002038B5064DB0
:102E40000023044608462B6000F030F8431C02D1F2
:102E50002B6803B1236038BD24030020024B5822A5
:102E60001A604FF0FF30704724030020024B5822B5
:102E70001A604FF0FF30704724030020024B5822A5
:102E80001A600020704700BF24030020024B582224
:102E90001A604FF0FF30704724030020024B582285
:102EA0001A604FF0FF30704724030020044A0549A0
:102EB0001368002B08BF0B46184410601846704773
:102EC00030030020380300202DE9F047089D0C4610
:102ED000002B4ED194468C458646B2FA82F262D9D6
:102EE0004AB1C2F12003914020FA03F30CFA02FC2C
:102EF000194300FA02FE4FEA1C471FFA8CF6B1FB99
:102F0000F7F44FEA1E4307FB141143EA014304FBA5
:102F100006F199420AD91CEB030304F1FF3080F05B
:102F20001381994240F21081023C6344591A1FFAFE
:102F30008EF3B1FBF7F007FB101143EA014300FBEE
:102F400006F69E420AD91CEB030300F1FF3180F024
:102F5000FD809E4240F2FA80634402389B1B40EAA7
:102F6000044000211DB1D3400022C5E90032BDE874
:102F7000F0878B4205D90DB1C5E900010021084653
:102F8000F5E7B3FA83F1002946D1A34202D3904278
:102F9000C0F0F180861A64EB03030120002DE6D017
:102FA000C5E90063E3E7002A40F09180A1EB0C043F
:102FB0004FEA1C481FFA8CF70121B4FBF8F64FEAE0
:102FC0001E4308FB164443EA044307FB06F09842FD
:102FD00008D91CEB030306F1FF3402D2984200F239
:102FE000CE8026461C1A1FFA8EF3B4FBF8F008FBBD
:102FF000104443EA044300FB07F79F4208D91CEB47
:10300000030300F1FF3402D29F4200F2B180204658
:10301000DB1B40EA0640A5E7C1F120068B4022FAFF
:1030200006F71F4320FA06FC04FA01F343EA0C03F7
:10303000F44000FA01F8380C4FEA1349B4FBF0FEF3
:103040001FFA87FC00FB1E4449EA04440EFB0CF9FE
:10305000A14502FA01F20AD93C190EF1FF3A80F0BB
:103060008580A14540F28280AEF1020E3C44A4EB83
:1030700009041FFA83F9B4FBF0F300FB134449EA97
:10308000044403FB0CFCA44507D93C1903F1FF30B1
:1030900068D2A44566D9023B3C4443EA0E40A0FBFB
:1030A0000293A4EB0C049C42CE469C4652D34FD0D4
:1030B00055B1B8EB0E0364EB0C0404FA06F6CB40F2
:1030C000CC401E43C5E900640021BDE8F087C2F191
:1030D000200320FA03F10CFA02FC24FA03F39440D3
:1030E0000C434FEA1C4800FA02FE1FFA8CF7B3FBB0
:1030F000F8F008FB1031230C43EA014300FB07F111
:10310000994208D91CEB030300F1FF362CD29942F7
:103110002AD9023863445B1AA4B2B3FBF8F108FB66
:10312000113344EA034401FB07F3A34208D91CEB23
:10313000040401F1FF3613D2A34211D902396444C9
:10314000E41A41EA004138E70446EFE6084605E79D
:10315000C845ADD2B9EB020E63EB070C0138A7E707
:103160003146EDE7034698E73046D4E7D6467EE79A
:10317000634402384CE70646234608460EE7023E03
:1031800063442FE7F8B500BFF8BC08BC9E46704703
:0C319000F8B500BFF8BC08BC9E467047B4
:10319C0054494D3620657870697265733A20256CF8
:1031AC00640A00004B455931205052455353414558
:1031BC00442120256C640A004B455932205052455D
:1031CC0053534145442120256C640A000000000043
:1031DC0001020304000000000000000001020304CF
:1031EC0006070809232D302B2000686C4C006566FF
:1031FC00674546470030313233343536373839413C
:10320C004243444546003031323334353637383951
:08321C00616263646566000055
:08322400A4FCFF7F0100000083
:04322C00CD020008C7
:04323000A5020008EB
:1032340001000000100000000024F4001000002031
:1032440000000000E40100204C020020B402002031
:10325400000000000000000000000000000000006A
:10326400000000000000000000000000000000005A
:10327400000000000000000000000000000000004A
:10328400000000000000000000000000000000003A
:0832940003000000E40100202A
:0400000508001FAD23
:00000001FF
